:020000040800F2
:100000006804002045010008250700086B0500086A
:10001000710600087D030008A5100008000000001C
:100020000000000000000000000000008D08000833
:100030008103000800000000C1070008A9090008AA
:100040005F0100085F0100085F0100085F01000810
:100050005F0100085F0100085F0100085F01000800
:100060005F0100085F0100085F0100085F010008F0
:100070005F0100085F0100085F0100085F010008E0
:100080005F0100085F0100085F0100085F010008D0
:100090005F0100085F0100085F0100085F010008C0
:1000A0005F0100085F0100085F0100085F010008B0
:1000B0005F0100085F0100085F0100085F010008A0
:1000C0005F0100085F0100085F0100085F01000890
:1000D0005F0100085F0100085F0100085F01000880
:1000E0005F0100085F0100085F0100085F01000870
:1000F0005F0100085F0100085F0100085F01000860
:100100005F0100085F0100085F0100085F0100084F
:100110005F0100085F010008950C00085F010008FE
:100120005F0100085F0100085F0100085F0100082F
:10013000DFF80CD000F010F900480047C7100008A5
:10014000680400200648804706480047FEE7FEE7AF
:10015000FEE7FEE7FEE7FEE7FEE7FEE7FEE7FEE777
:10016000AD09000831010008F0B480EA0102D40FA3
:100170004200B2EB410F02D20246084611464A0045
:1001800042D0C30DDDB2C1F3C752AD1A202D35DA0E
:10019000C1F3160141F4000204B15242C5F1200638
:1001A00002FA06F12A411044B3EBD05F23D0C4B168
:1001B000012DA0EBC35009DCF0BC4FF0004202EA75
:1001C000C352DBB200F5000000F097B8400000F128
:1001D000807000EBC350A0F1807040EAD1704900FC
:1001E00009E0490841EAC071A0EBC35000F50000E6
:1001F000400800EBC350F0BC00F076B86142012229
:1002000002EB4101001BF6E7F0BC704781F00041B2
:10021000AAE780F00040A7E780EA010210B502F0EB
:100220000043400022D04A001FD0010E01EB1261B2
:10023000C0F35600C2F3560240F4000042F400023C
:10024000A0FB022000047F39140400D0401C50EAB7
:10025000124001D44000491EC2B20C0604EBD0107B
:10026000401C4008802A02D003E0002010BD20F08E
:100270000100002900DA0020184310BDC10F80EAF8
:10028000E0700844CA079623002100F036B800F059
:10029000004220F00040C10DC0F3160040F4000001
:1002A0007F2901DA00207047962903DCC1F196010D
:1002B000C84001E096398840002AF4D04042704797
:1002C000002801DBC0F10040002901DBC1F1004141
:1002D00081427047002801DBC0F10040002901DBAA
:1002E000C1F10041884270470029A8BF7047401CF7
:1002F000490008BF20F00100704710B4B0FA80FC3C
:1003000000FA0CF050EA010404BF10BC704749B178
:10031000CCF1200421FA04F411FA0CF118BF0121E8
:1003200021430843A3EB0C01CB1D4FEA00614FEAC8
:10033000102042BF002010BC704700EBC350104497
:100340000029A4BF10BC7047401C490008BF20F022
:10035000010010BC70470000064C074D06E0E06845
:1003600040F0010394E8070098471034AC42F6D3FC
:10037000FFF7E2FED0100008F010000800BFFEE713
:100380007047000008B50121082000F02BFAC020BA
:10039000ADF8000004208DF803006946014800F024
:1003A00059F808BD000C014030B587B004460D4631
:1003B000FFF7E8FF0121042000F004FA0020ADF867
:1003C0001200A8B2ADF81400A0B2ADF810000020E1
:1003D000ADF816008DF8180004A91D4800F010FEB5
:1003E0000020ADF80400ADF80A00ADF806000120C9
:1003F000ADF808000020ADF80C0001A9144800F089
:10040000BBFC0420ADF804000020ADF80A00ADF8F4
:1004100006000120ADF808000020ADF80C0001A98D
:100420000B4800F0A9FC00231A460321084800F0FD
:1004300081FC0121064800F05FFC0021044800F027
:10044000B0FD0121024800F05AFC07B030BD0000A9
:10045000000800402DE9F04102460025002600205A
:1004600000230024002791F803C00CF00F0591F839
:1004700003C00CF0100CBCF1000F03D091F802C0C7
:100480004CEA050591F800C0BCF1000F31D01468AA
:1004900000202BE04FF0010C0CFA00F3B1F800C083
:1004A0000CEA03069E4220D183004FF00F0C0CFA99
:1004B00003F7BC4305FA03FC4CEA040491F803C0BB
:1004C000BCF1280F06D14FF0010C0CFA00FCC2F869
:1004D00014C00AE091F803C0BCF1480F05D14FF0F9
:1004E000010C0CFA00FCC2F810C0401C0828D1D343
:1004F0001460B1F800C0BCF1FF0F34DD5468002077
:100500002EE000F1080C4FF0010808FA0CF3B1F8E6
:1005100000C00CEA03069E4221D183004FF00F0C6D
:100520000CFA03F7BC4305FA03FC4CEA040491F807
:1005300003C0BCF1280F05D100F1080C08FA0CF833
:10054000C2F8148091F803C0BCF1480F07D100F144
:10055000080C4FF0010808FA0CF8C2F81080401C93
:100560000828CED35460BDE8F08100BFFEE700004C
:100570002DE9F05F04460D46314832494861324862
:1005800088610020C861601BFFF778FE2D498860F4
:100590000846C1684FF08040FFF73EFE8346294879
:1005A00081685846FFF735FE824626480169504665
:1005B000FFF7DAFD81462348C1694846FFF72CFE64
:1005C0000746204A91689069FFF726FE82461D4A39
:1005D000D1689068FFF71AFE83461A484169584669
:1005E000FFF71AFE81465146FFF7BEFD80463946A9
:1005F000FFF7BAFD06461348016A3046FFF7B4FD1F
:1006000010490862086A1149FFF764FE03D20F48D7
:100610000C49086208E00B49086A0D49FFF750FED3
:1006200002D20B48074908620648C06805490861BC
:1006300008468068C860086AFFF729FEBDE8F09F99
:10064000000016C30C000020000020C20000E1459D
:100650000000E1C510B54FF6FF710020FFF7A4FEC2
:1006600000F008F841F61F41312000F0EFFA10BD0C
:1006700000BFFEE700B589B00121102000F0B2F8FC
:100680000121480300F0AEF818208DF82300C020A7
:10069000ADF8200003208DF8220008A91F48FFF7BD
:1006A000D9FE0020ADF8140041F61F40ADF8180047
:1006B0000020ADF81600ADF81A008DF81C0005A951
:1006C000174800F09DFC0020ADF80A000120ADF8AD
:1006D00006006020ADF804000020ADF80C0001A970
:1006E0000F4800F0A9FB01A90D4800F0FBFB012118
:1006F0000B4800F004FB0821094800F0E9FB082141
:10070000074800F041FC0121054800F004FB0121ED
:10071000034800F0E5FA09B000BD000000100140F8
:10072000003401407047F8B506460C461546F0B255
:100730008DF80000E0B28DF80100E8B28DF80200FB
:1007400001208DF80300684600F002F8F8BD0000B3
:1007500070B5002100230F22C47804B3154C24681F
:1007600004F4E064C4F5E064210AC1F10403CA4062
:10077000447804FA03F184781440214309010E4CB3
:100780000678A155047804F01F050124AC400578D3
:100790006D11AD0005F1E025C5F8004109E00478D0
:1007A00004F01F050124AC40044D0678761145F88D
:1007B000264070BD0CED00E000E400E080E100E0C8
:1007C0007047000029B1064AD2690243044BDA613E
:1007D00004E0034AD2698243014BDA6170470000AA
:1007E0000010024029B1064A92690243044B9A6103
:1007F00004E0034A92698243014B9A61704700000A
:10080000001002400146092932D2DFE801F031052B
:100810000C151C2331312A00174A128810B200220D
:10082000154B1A8026E04FF08042928C10B20022C5
:100830004FF080439A841DE0104A128810B20022C3
:100840000E4B1A8016E00E4A128810B200220C4B92
:100850001A800FE00B4A128810B20022094B1A804E
:1008600008E0094A128810B20022074B1A8001E002
:10087000002000BF00BF7047242C0140240400402A
:1008800024080040240C004024340140704710B577
:1008900000F002F810BD00000CB50020019000909F
:1008A0003348006840F480303149086000BF304868
:1008B000006800F4003000900198401C01900098FE
:1008C00018B90198B0F5A06FF1D12948006800F47B
:1008D000003010B10120009001E00020009000984D
:1008E000012843D12348006840F0100021490860E6
:1008F0000846006820F0030008600846006840F0E1
:10090000020008601A484068194948600846406873
:1009100048600846406840F4806048600846406887
:1009200020F47C1048600846406840F4E8104860B5
:100930000846006840F08070086000BF0C480068FE
:1009400000F000700028F9D00948406820F003004A
:10095000074948600846406840F00200486000BF10
:100960000348406800F00C000828F9D10CBD0000D5
:100970000010024000200240002808DD4FF4E15141
:10098000084A1180C0F5E151121F118008E04FF4B0
:10099000E151044A121F118000F5E151121D11802E
:1009A00070470000383401407047000010B513480C
:1009B000006840F00100114908600846406810498D
:1009C00008400E494860084600680E4908400B4937
:1009D00008600846006820F48020086008464068E7
:1009E00020F4FE0048604FF41F008860FFF74FFFBF
:1009F0004FF000600449086010BD00000010024084
:100A00000000FFF8FFFFF6FE08ED00E0F0B50C4631
:100A1000154600220021068C4FF6FE773E400684E4
:100A2000028B018C4FF60C7632407E1C06EA0316D0
:100A30002E433243104EB0420ED0104EB0420BD077
:100A4000B0F1804F08D00E4EB04205D00D4EB042EE
:100A500002D00D4EB04206D14FF6FD76314044F043
:100A60000106314305E04FF6F576314044F00106CA
:100A7000314302830184F0BD002C01400034014069
:100A80000004004000080040000C0040F0B50C4697
:100A90001546002200210026078C4FF6EF7C07EA5E
:100AA0000C070784028B018C4FF6FF7707EA0416C8
:100AB00040F6FF473A404FF6FF7707EA03373A43DD
:100AC0004FF6FF7707EA05273A43114FB8420ED099
:100AD000104FB8420BD0B0F1804F08D00E4FB84243
:100AE00005D00E4FB84202D00D4FB84206D14FF696
:100AF000DF77394046F01007394305E04FF65F775E
:100B0000394044F01007394302830184F0BD0000EE
:100B1000002C014000340140000400400008004067
:100B2000000C0040F0B50C461546002200210026BE
:100B3000078C4FF6FF6C07EA0C070784828B018C49
:100B40004FF6FF7707EA04264FF60C773A404FF648
:100B5000FF7707EA03172F433A43114FB8420ED0ED
:100B6000104FB8420BD0B0F1804F08D00E4FB842B2
:100B700005D00E4FB84202D00D4FB84206D14FF605
:100B8000FF57394046F48077394305E04FF2FF576D
:100B9000394044F48077394382830184F0BD0000FA
:100BA000002C0140003401400004004000080040D7
:100BB000000C0040F0B50C4615460022002100262E
:100BC000078C4EF6FF7C07EA0C070784828B018CAA
:100BD0004FF6FF7707EA043640F6FF473A404FF6F4
:100BE000FF7707EA05273A434FF6FF7707EA03370F
:100BF0003A43114FB8420ED0104FB8420BD0B0F16B
:100C0000804F08D00E4FB84205D00E4FB84202D0E8
:100C10000D4FB84206D14DF6FF77394046F4805764
:100C2000394305E047F6FF57394044F480573943CC
:100C300082830184F0BD0000002C0140003401409B
:100C40000004004000080040000C00403EB505468E
:100C50000C4601211020FFF7B5FDADF80050ADF8AE
:100C6000044069460A4800F0CBF90121084800F029
:100C700043F801221146064800F0D4F80022012171
:100C80003620FFF750FD0121014800F038F83EBD45
:100C90000010004010B50E48008A00F00100B0B10D
:100CA0000420FFF7AFFD0B4908600B4801680948B5
:100CB0000068FFF75DFC0949086008460068FFF717
:100CC0005BFE0348008A20F001000149088210BD44
:100CD0000010004004000020080000200000002058
:100CE00021B1028842F08002028004E002884FF6BF
:100CF0007F731A4002807047CA430282704721B155
:100D0000028842F00102028004E002884FF6FE737E
:100D10001A400280704731B1B0F8442042F40042DA
:100D2000A0F8442005E0B0F84420C2F30E02A0F879
:100D300044207047F0B50C4615461E46002100229F
:100D400000230189028B038C4FF6F8773940214349
:100D50004FF6FC473A4040F201173A434FF6DD7731
:100D60003B404FF6FF7707EA06172F433B430181CD
:100D700002830384F0BD000070B505460C4624488C
:100D800085420ED0234885420BD0B5F1804F08D064
:100D90002148854205D02148854202D0204885421D
:100DA00000D100E000BF208850B92389A288618863
:100DB0002846FFF72BFEE188284600F0F4F825E0EE
:100DC000208804280AD12389A28861882846FFF751
:100DD0005DFEE188284600F0EFF817E0208808283B
:100DE0000AD12389A28861882846FFF79BFEE18803
:100DF000284600F0EEF809E02389A2886188284699
:100E0000FFF7D8FEE188284600F0ECF870BD00003E
:100E1000002C014000340140000400400008004064
:100E2000000C00401AB183890B43838102E083895F
:100E30008B4383817047000070B50024002200239B
:100E4000058C4FF6FE7635400584028C8388048B32
:100E50004FF68F752C40B51E2C400D882C43751E07
:100E60002A400D892A434D882A43144DA8420BD0AD
:100E7000134DA84208D0134DA84205D0124DA842E8
:100E800002D0124DA84213D14FF6F7752A404D8972
:100E90002A434FF6FB752A408D882A434FF6FF659B
:100EA0002B404FF6FF552B408D892B43CD892B438B
:100EB00083800483CD888586028470BD002C014028
:100EC000003401400040014000440140004801401E
:100ED0000A460021018B4FF6F77319401143018335
:100EE0007047000070B5002400220023058C4FF6E7
:100EF000EF7635400584028C8388048B48F6FF75B5
:100F00002C404FF6FF452C400D884FF6FF7606EA41
:100F100005252C434FF6DF752A400D8906EA051595
:100F20002A434D8806EA05152A43154DA84202D0EA
:100F3000144DA8421DD14FF67F752A404D894FF6BA
:100F4000FF7606EA05152A434FF6BF752A408D88BD
:100F500006EA05152A434FF6FF352B404FF2FF7581
:100F60002B408D8906EA85052B43CD8906EA850548
:100F70002B4383800483CD880587028470BD0000E5
:100F8000002C0140003401400A460021018B4FF241
:100F9000FF7319404FF6FF7303EA022319430183DD
:100FA000704781847047028B4FF6F3731A400283B7
:100FB000028B0A4302837047028B4FF2FF331A40C1
:100FC0000283028B4FF6FF7303EA01231A43028365
:100FD0007047828B4FF6F3731A408283828B0A43E9
:100FE00082837047828B4FF2FF331A408283828B59
:100FF0004FF6FF7303EA01231A4382837047000010
:10100000002202881D4B98420ED01D4B98420BD0F7
:10101000B0F1804F08D01B4B984205D01A4B984234
:1010200002D01A4B984204D14FF68F731A404B8866
:101030001A43174B984207D0164B984204D04FF6EC
:10104000FF431A40CB881A4302808B8883850B8824
:1010500003850A4B98420BD0094B984208D00E4B9F
:10106000984205D00D4B984202D00D4B984201D1C9
:101070000B7A03860123838270470000002C014015
:10108000003401400004004000080040000C004013
:1010900000100040001400400040014000440140A6
:1010A0000048014000BFFEE702E008C8121F08C167
:1010B000002AFAD170477047002001E001C1121FD9
:1010C000002AFBD1704710B5FFF7C4FA002010BD0D
:1010D000F0100008000000200C000000A81000081C
:1010E000FC1000080C0000205C040000B810000890
:0C10F000000000000000000014000000E0
:0400000508000145A9
:00000001FF
